:020000040800F2
:1000000050080020D5000008090700082D06000848
:1000100000000000000000000000000000000000E0
:100020000000000000000000000000008F0C00082D
:1000300000000000000000007D0700087D0E0008A1
:10004000E7000008E7000008E7000008E7000008F4
:10005000E7000008E7000008E7000008E7000008E4
:10006000E7000008E7000008E7000008E7000008D4
:1000700085010008E7000008E7000008E700000825
:10008000E7000008E700000800000000E7000008A3
:10009000E7000008E7000008E7000008E7000008A4
:1000A000E7000008E7000008E7000008E700000894
:1000B000E7000008E7000008E7000008E700000884
:1000C0000348854600F03EF800480047F513000855
:1000D000500800200448804704480047FEE7FEE738
:1000E000FEE7FEE7FEE7FEE7810E0008C10000081C
:1000F00030B50B46014600202022012409E00D46C0
:10010000D5409D4205D31D469540491B2546954047
:1001100040191546521E002DF1DC30BD70B500248B
:100120002546002801DA01244042002901DA012590
:100130004942FFF7DDFFAC4200D04042002C00D026
:10014000494270BD064C0125064E05E0E36807CC28
:100150002B430C3C98471034B442F7D3FFF7B4FF5D
:1001600084140008A4140008002905D0C2680123E3
:10017000DB031A43C26004E0C2680123DB039A4335
:10018000C260704710B51021064800F0CDF8002875
:1001900006D0002000F03EFA1021024800F010F8CE
:1001A00010BD00000024014010B50B460021846AF8
:1001B0001C43846200BF0C4614432146416110BDBC
:1001C00001607047002904D0826801231A438260CD
:1001D00003E0826802231A438260704700B58BB047
:1001E0000121480400F0CCFA0121480200F010FB84
:1001F000012002900321684601730021C17302A906
:100200000920C00600F000F9214800F043F8002062
:100210000590002168460176012080020790C020E9
:100220000890002009900A9005A9194800F098F854
:10023000032201211648FFF7B7FF154800F03AF8EE
:1002400001221021124800F080F80C21684601714B
:10025000002141710121817101A800F057FA0121AB
:100260000B48FFF7AFFF00BF0121094800F044F839
:100270000028F9D00121064800F08DF8044800F06C
:1002800085F801210248FFF76FFF0BB000BD0000A9
:100290000024014010B504460548844207D10121DD
:1002A000401500F0C5FA0021601500F0C1FA10BD3C
:1002B0000024014030B501460020002200238C6854
:1002C0000125ED072C438C6000BF8C68E30FDB0732
:1002D000521C0F242403A24201D0002BF5D18C68BC
:1002E000E40FE407002C01D1086C00E0002030BDD1
:1002F0000146086C80B2704730B5024600200023EA
:10030000012424060C40002C05D0946801252D06FC
:10031000AC43234600E013681C460C40002C01D07F
:10032000012000E0002030BD10B50246002000236F
:1003300054680C40234614680C40002C03D0002B5A
:1003400001D0012000E0002010BD002A03D0436846
:100350000B43436002E043688B43436070470000F7
:1003600010B50022C268084B1A400C7964030B6870
:1003700023438C682343CC6823430C6923434C6993
:1003800023431A43C26010BD03D2FFFF81680422D9
:10039000114381607047002905D0C26801239B0387
:1003A0001A43C26004E0C26801239B039A43C260FF
:1003B0007047000070B5002400257D21C9000B485E
:1003C0000088FFF7ABFE04467D21C900074800887E
:1003D000FFF7A4FE0E4664213046FFF79FFE054658
:1003E0002A46214602A000F015FF70BD0200002041
:1003F0002020205628506F7429203D2025642E256A
:100400006420560D0A000000F0B5002200230024ED
:1004100000BF3DE0012595402B460D681D402C4650
:100420009C4234D10D79012D02D00D79022D16D1C7
:10043000856857000326BE40B54385604D79560058
:10044000B540866835438560456801269640B543CA
:10045000456045688E799640B6B23543456005687B
:1004600057000326BE40B54305600D795600B540E0
:10047000066835430560C56857000326BE40B5438E
:10048000C560CD795600B540C6683543C560521C7D
:10049000102ABFD30D7A002D04D1056B0E683543A9
:1004A000056303E0056B0E68B5430563F0BDF0B569
:1004B000002300244D07EE0E1546B5402B46CD1007
:1004C000012D0BD1456A4E07F70E0F26BE40B543EE
:1004D0004562456A1D432C4644620AE0056A4E07A0
:1004E000F70E0F26BE40B5430562056A1D432C4634
:1004F0000462F0BDFEB504460D46A100254A5158E0
:10050000A200254B9A5811430846012100F038F902
:10051000A100224A5058012100F042F9204B1A5DF7
:10052000204B195DA300204EF058FFF7C0FF1F4B72
:100530001A5D1F4B195DA3001E4EF058FFF7B7FF61
:1005400060001D49085A009002216846017101218E
:100550004171002181710121C171A100124A5058DD
:100560006946FFF751FF60001449085A0090A10046
:10057000324650586946FFF747FFA100104A5058CD
:10058000294600F0CFFDA1000D4A5058012100F08E
:10059000A0FDFEBD74140008781400087014000853
:1005A0008214000880140008400000208314000812
:1005B00081140008440000207C1400087E14000808
:1005C0003C0000203EB50446A1000F4A50580121CE
:1005D00000F0D6F860000D49085A009001216846E5
:1005E000017100218171C17103214171A100084A8B
:1005F00050586946FFF708FF60000449085AA100F7
:10060000034A515888613EBD501400084C1400083C
:100610002C0000204100034A515A8200024B9A5894
:10062000916270474C1400082C00002000BFFEE7C8
:1006300000202B49486B000C2A4988424FD00020EB
:100640002949C969012212071143274AD161274963
:10065000274AD1602749D1602749096A491C0029E6
:100660000BD02549096A254A114008462049096BE3
:10067000234A114008431E4908631F49896A491CDF
:1006800000291ED01C49098D4805400D1A49098DC5
:100690000907090C0843164908621749098D08071C
:1006A000000F022804D9801E010308431049486244
:1006B0000F49403909680322D20291430C4A403A5B
:1006C000116013210A4A91624421D1620D49D1601F
:1006D000D1600549C96992059143034AD1617047C8
:1006E000C0F7FF1F9A650000001002408519000046
:1006F0004070004029040000C0DBFF1F1F1F0000E6
:10070000E0E00000FFFF0000704700000021827859
:10071000002A27D0184A03231B02D21803789B1003
:100720009B00D15802789207D30EFF229A400B46C5
:100730009343194642789207120E03789B07DB0E0B
:100740009A4011430C4A03231B02D21803789B10D2
:100750009B00D1500278D306DB0E01229A40064B53
:100760001A6007E00278D306DB0E01229A40024BA2
:1007700080331A607047000000E100E0704700001D
:10078000002905D0054A52690243044B5A6104E02E
:10079000024A52698243014B5A617047001002407D
:1007A00000290FD00122520202400F4B1B681A434E
:1007B0000D4B1A600D4AD2691B681A4302430B4B5A
:1007C000DA610FE0012252020240074B1B6893439B
:1007D000054A1360054AD269034B1B681A438243DA
:1007E000024BDA6170470000180000200010024040
:1007F000002905D0054A12690243044B1A6104E03E
:10080000024A12698243014B1A617047001002408C
:10081000002905D0054A92690243044B9A6104E01D
:10082000024A92698243014B9A617047001002406C
:10083000002905D0054AD2680243044BDA6004E07F
:10084000024AD2688243014BDA60704700100240CE
:10085000FEB50446002500260027002002900190E6
:100860000090F74840680F21890408400646F44884
:1008700040680121090408400746B00C861C002F7F
:1008800004D13046EF494843009026E0EC48C06A66
:100890000007000F401C0290E948C030806A032125
:1008A00089030840870B002F06D1E7480299FFF71C
:1008B0001FFC7043009010E0012F06D1E24802991E
:1008C000FFF716FC7043009007E0022F05D1DF48C8
:1008D0000299FFF70DFC70430090D948C030806A40
:1008E00080210840002808D0D548C030806A3821CF
:1008F0000840C5081020054304E0D14840680C2199
:1009000008408508112D1FD008DC002D0FD0012DC7
:1009100010D0022D11D0102D26D111E0122D17D09C
:10092000132D18D0142D19D0152D1DD119E0C6483E
:1009300020601CE0C448206019E00098206016E0A8
:100940000120C003206012E00120C00320600EE0FF
:10095000BF4820600BE0BF48206008E0BA48206034
:1009600005E0BA48206002E0B748206000BF00BF41
:10097000B3484068F021084005462D09B648405D5F
:10098000019021680198C1406160AD48406807212D
:100990000902084005462D0AAF48405D0190616894
:1009A0000198C140A160A648C030806A03210904B3
:1009B0000840050C002D06D0012D07D0022D08D0CF
:1009C000032D0CD108E0A048E0600BE09F48E060F8
:1009D00008E02068E06005E0A068E06002E09A4876
:1009E000E06000BF00BF9648C030806A03218904E0
:1009F0000840850C002D06D0012D07D0022D08D00F
:100A0000032D0CD108E0904820610BE08F48206155
:100A100008E02068206105E0A068206102E08A48C3
:100A2000206100BF00BF8648C030806A03210906EC
:100A30000840050E002D04D0012D05D0022D0AD14D
:100A400006E0A068A06209E00120C003A06205E002
:100A50007D48A06202E0A068A06200BF00BF7848A5
:100A6000006B45076D0F2B0000F0E4FB0504070A3F
:100A70000E121500A068606110E0744860610DE01E
:100A80000120C003606109E00120C003606105E04E
:100A90007048606102E0A068606100BF00BF684804
:100AA000006B38210840C5082B0000F0C3FB05048B
:100AB000070A0E121500A068A06110E06348A0614B
:100AC0000DE00120C003A06109E00120C003A06186
:100AD00005E06048A06102E0A068A06100BF00BF1F
:100AE0005748006BFF21C131084085092B0000F0F9
:100AF000A1FB0504070A0E121500A068E06110E0D2
:100B00005248E0610DE00120C003E06109E00120EE
:100B1000C003E06105E04F48E06102E0A068E061E9
:100B200000BF00BF4648006B072149020840450A44
:100B30002B0000F07FFB0504070A0E121500A068C9
:100B4000206210E0414820620DE00120C0032062D5
:100B500009E00120C003206205E03E48206202E077
:100B6000A068206200BF00BF3548006B0121C903A7
:100B70000840C50B002D02D0012D06D102E00098DF
:100B8000E06205E03248E06202E00098E06200BF07
:100B900000BF2B48006B072109040840050C2B00FF
:100BA00000F048FB0504070A0E121500A0686062F9
:100BB00010E0264860620DE00120C003606209E099
:100BC0000120C003606205E02248606202E0A06884
:100BD000606200BF00BF1A48006A0721090208408E
:100BE000050A012D06D0022D08D0032D0AD0042DB0
:100BF0000ED10AE00120C00320630CE00120C003F5
:100C0000206308E01548206305E01048206302E0F7
:100C10000E48206300BF00BF0948006A072109068B
:100C20000840050E2B0000F005FB0805081B1E21DF
:100C300024272A2D0020606327E00120606324E040
:100C40000010024000093D0000127A00200B200035
:100C5000006CDC020024F4001C00002090D0030093
:100C60000220606311E0032060630EE004206063F3
:100C70000BE00520606308E00620606305E00720C4
:100C8000606302E00320606300BF00BFFEBD7047E9
:100C900010B52C482C4948602C484860084600692B
:100CA0000121090488432849086108460069802118
:100CB0000843254908612648008F80B225498842AB
:100CC0001BD12548406A2549084023494862084607
:100CD000406A1F49896B3F2292051140090C084365
:100CE0001D4948620846406A1949896B0F2212045F
:100CF0001140890B084318494862FFF799FC1648D0
:100D000000690121C90708431349086108460069C1
:100D100009150843104908610846C0680121090601
:100D200008430D49C8600846C068012108430A49C4
:100D3000C8600846C06840084000C86000F010F86D
:100D400010BD00002301674500200240AB89EFCDB4
:100D5000C0F7FF1F8B7400000010024003F0FFFF7C
:100D60000CB5002001900090414800680121090461
:100D700008433F49086000BF3D480068012149041D
:100D8000084000900198401C01900098002803D171
:100D9000384901988842EFD135480068012149045B
:100DA0000840002802D00120009001E000200090BF
:100DB000009801285BD130480068102108432E4973
:100DC000086008460068C008C0000860084600685F
:100DD00002210843284908602548406824494860A2
:100DE0000846406848600846C06A00090001C862B9
:100DF0000846C06AC8621E48C030806A0321890361
:100E000088431B49C03188620846806A8862184856
:100E100040683F21090488431549486008464068F6
:100E2000112109040843124948600846006801215D
:100E3000090608430E49086000BF0D4800680121FB
:100E4000490608400028F8D009484068800880001A
:100E50000749486008464068022108430449486041
:100E600000BF034840680C2108400828F9D10CBD98
:100E700000100240FFFF0000002002407047000009
:100E800010B51D480068012108431B490860084649
:100E900040681A490840184948601748C030806ABD
:100EA000802188431449C03188621348006814497E
:100EB000084011490860084640683F2109048843FA
:100EC0000D4948600846C06A00090001C86208462A
:100ED000006B13218843084908630846406B0921C9
:100EE00088430549486300208860FFF7D1FE002051
:100EF0000449086110BD0000001002400CC0FF80D2
:100F0000FFFFF6FE80200240002904D00268012382
:100F10001A43026003E00268014B1A400260704706
:100F2000FEFF000000B589B001210220FFF738FC68
:100F3000124800F027F806A800F0C2F801A800F057
:100F400087F87D20C000079001460D480068FFF734
:100F5000CFF8401E81B2684601830021018441839D
:100F600006A9064800F088F82021044800F07AF825
:100F700001210248FFF7C8FF09B000BD000400408E
:100F80000400002010B504462B48844208D10121FA
:100F9000C014FFF74DFC0021E014FFF749FC4AE0C4
:100FA00001208007844208D101210846FFF720FC78
:100FB00000210120FFF71CFC3DE02048844208D1BD
:100FC00001210220FFF714FC00210220FFF710FC92
:100FD00031E01B48844208D101218015FFF708FC4D
:100FE0000021A015FFF704FC25E01648844209D132
:100FF00001210804FFF71CFC002101200004FFF779
:1010000017FC18E01048844209D101214804FFF779
:101010000FFC002101204004FFF70AFC0BE00B4805
:10102000844208D101218804FFF702FC002101203D
:101030008004FFF7FDFB10BD002C014000040040C0
:1010400000200040004001400044014000480140B1
:10105000002101804180818081608181C181018284
:10106000418270474268034B1A40426042680A431B
:10107000426070478FFF0000002203689AB20D4B58
:10108000984206D001239B07984202D00A4B98420F
:1010900003D10A4B1A404B881A4302604B68C36263
:1010A0000B888362034B984201D18B7A036301233F
:1010B00043617047002C0140000400408FFF000096
:1010C0000021C9434160002101800181418081727A
:1010D0007047002904D0026801231A43026003E02C
:1010E0000268520852000260704700B587B0E120E4
:1010F00040020190002002900390049006900C2082
:10110000059001A90020FFF7F5F907B000BD0246E0
:101110000020D3690B40002B01D0012000E000200B
:1011200070470000F0B58FB004460D460027002040
:101130000E90002620684008400020606668032169
:101140000903304688430646A86806436660266859
:101150002A480640E9686868084329690843064345
:101160002660A6680321090230468843064668695E
:101170000643A6606846FFF76BFB2148844202D114
:1011800005980E9007E01F48844202D106980E9001
:1011900001E002980E9020680121C9030840002850
:1011A0000CD029680E9A5000FEF7A2FF0746296866
:1011B0000E9A5000FEF79CFF0E4609E029680E9833
:1011C000FEF796FF074629680E98FEF791FF0E4638
:1011D00028684008B04200D87F1C20680121C9035C
:1011E0000840002806D03807460F38460649084010
:1011F00030430746B8B2E0600FB0F0BDF3E9FFFF3F
:101200000038014000440040F0FF0000CA05D20D44
:10121000826270470FB410B503A9044B044A0298C8
:1012200000F026F810BC08BC04B01847C113000831
:101230004800002030B47446641E2578641CAB421C
:1012400004D3635D5B00E31830BC18471D46F8E724
:1012500002E008C8121F08C1002AFAD1704770477F
:10126000002001E001C1121F002AFBD170470000DD
:10127000FFB58DB00446002506E025280AD0109A57
:101280000F999047641C6D1C20780028F5D12846E2
:1012900011B0F0BD00270121484A009700E0074344
:1012A000641C23780846203B98401042F7D12078F0
:1012B0002E2817D1042007436078641C2A280CD1FB
:1012C0000E98641C02C800910E900BE000990A224F
:1012D000514330394018641C009020780146303961
:1012E0000929F3D920780028D1D0642808D06928AA
:1012F00006D075281ED0109A0F9990476D1C5BE0A0
:101300000A200E99019001C90E91002802DA40428C
:101310002D2102E0390504D52B216A4611720121E5
:1013200003E0F90704D02021F7E70BAE0B910DE0A5
:101330000021FAE70A200E99019001C90E91F7E702
:101340000199FEF7D5FE3031761E31700028F7D1B5
:1013500003A8801B20300190780701D5009801E098
:10136000012000900199884201DD401A00E0002030
:101370000027009006E002A8109AC05D0F999047E0
:101380006D1C7F1C0B988742F5DB04E0109A30201F
:101390000F9990476D1C0099481E00900029F5DCBC
:1013A00005E03078109A761C0F9990476D1C0199D2
:1013B000481E01900029F4DC641C65E7092801003F
:1013C000F8B505460F460026E9B20848FFF71EFFAC
:1013D00000BF80210548FFF79AFE0446761C002CCA
:1013E00002D103488642F4D12846F8BD00480040A7
:1013F000FFFF00000020FFF7E5F8FEF7EFFEFFF724
:1014000091FDFFF772FE16E000BF04210A48FEF7C7
:1014100073FF0028F9D00848FEF76AFF07490880E3
:101420000988074A514308460649FEF777FE0649F0
:101430000880FEF7BFFFE7E700240140000000201E
:10144000E40C0000FF0F000002000020100020004C
:1014500000004000000040000400002000000400E4
:1014600000000800040000200102020D0607000031
:101470000000040000000200000002001000200034
:1014800004050505A4140008000000204C0000001D
:1014900050120008F01400084C000020040800005E
:1014A0006012000800000000006CDC020000000078
:1014B0000000000001020304060708090000000004
:1014C00000000000010203040102030406070809EA
:1014D00000140048001400480004004800080048B8
:1014E00000480040000000480000004800000000E4
:04000005080000C12E
:00000001FF
